S012000043616E646C65626C6F772E7372656317
S3150100000058B30020C16F00016570000165700001E1
S315010000106570000165700001657000010000000057
S31501000020000000000000000000000000397500011A
S315010000306570000100000000317600017176000153
S315010000406570000165700001657000016570000151
S315010000506570000165700001657000016570000141
S3150100006065700001657000010000000099470001FC
S31501000070B1470001657000016570000165700001FE
S315010000806570000165700001657000016570000111
S315010000906570000165700001657000016570000101
S315010000A065700001657000016570000165700001F1
S315010000B065700001657000016570000100000000B7
S315010000C00000000000000000000000000000000029
S315010000D00000000000000000000000000000000019
S315010000E00000000000000000000000000000000009
S315010000F00000000000000000000000006570000123
S31501000100C150000165700001000000000000000000
S3150100011000000000000000000000000000000000D8
S3150100012000000000000000000000000000000000C8
S3150100013000000000000000000000000000000000B8
S31501000140000000000000000010B5054C237833B90B
S31501000150044B13B10448AFF300800123237010BD93
S31501000160980F002000000000F82502010C4B43B156
S315010001700C480D4910B5AFF300800C48036823B94C
S3150100018010BD0A48036833B97047094B002BF7D0F5
S31501000190BDE810401847064B002BF5D0184700BFA5
S315010001A000000000F82502019C0F0020F82502013D
S315010001B00000000080B48BB000AF78600B46FB7086
S315010001C07B687B62FB7887F823307B6AFB61FB697E
S315010001D0BB61BB695B097B617B6903F5001303F2B4
S315010001E007735B023B6197F82330002B09D07B6ACA
S315010001F0FB60FB6803F01F0301229A403B691A6307
S3150100020008E07B6ABB60BB6803F01F0301229A40CA
S315010002103B695A6300BF2C37BD4680BC704700005E
S3150100022080B584B000AFF860B9607A607A68B96861
S315010002300348044B984700BF1037BD4680BD00BF39
S31501000240B80F0020E5B2000180B582B000AF78603A
S315010002501248134B984700211248134B9847012126
S315010002600C20124B984701210F20104B9847002173
S315010002700C200E4B9847796808480D4B9847012189
S315010002800C200A4B984701210F20084B9847094B30
S31501000290984700BF0837BD4680BD00BFB80F002094
S315010002A055B3000121020001D1A80001B5010001E9
S315010002B0A9A80001C9A3000180B400AF094B0A4AED
S315010002C007CA03C31A80094B02221A80084B094A3E
S315010002D01A60094B4FF458521A8000BFBD4680BCC4
S315010002E0704700BFF00F0020B4190101FA0F00207A
S315010002F0FC0F0020010300360010002080B400AF7F
S31501000300024B1846BD4680BC704700BF78190101F3
S3150100031080B588B000AFF860B9601346FB80FB6812
S31501000320BB610023FB83FB88112B6BD1BB687B610F
S315010003307B699B889BB2002B01D1002363E0BB69DB
S315010003405A1CBA617A691268D2B21A70BB695A1C10
S31501000350BA617A691268120AD2B21A70BB695A1C5A
S31501000360BA617A691268120CD2B21A70BB695A1C48
S31501000370BA617A691268120ED2B21A70BB695A1C36
S31501000380BA617A69928892B2D2B21A70BB695A1C62
S31501000390BA617A69928892B2120A92B2D2B21A708C
S315010003A0BB695A1CBA617A6992791A70BB695A1C7F
S315010003B0BA617A69D2791A70BB695A1CBA617A69CB
S315010003C0127A1A70BB695A1CBA617A69527A1A7022
S315010003D0BB695A1CBA617A69927A1A70BB695A1C4E
S315010003E0BA617A69D27A1A70BA69FB68D31AFB8341
S315010003F07B69D3F80D107B699B889BB21A46B86955
S31501000400034B9847FB8B18462037BD4680BD00BF7E
S3150100041051C5000180B489B000AFF860B9601346D8
S31501000420FB800023FB77BB68BB61FB88202B40F078
S31501000430FA80FB687B61BB695A1CBA611B781A4654
S315010004407B691A60BB695A1CBA611B781B027A69FF
S3150100045012681A447B691A60BB695A1CBA611B7817
S315010004601B047A6912681A447B691A60BB695A1CB3
S31501000470BA611B781B067A6912681A447B691A608D
S31501000480BB695A1CBA611B781A467B695A60BB69FB
S315010004905A1CBA611B781B027A6952681A447B6935
S315010004A05A60BB695A1CBA611B781B047A69526887
S315010004B01A447B695A60BB695A1CBA611B781B06D0
S315010004C07A6952681A447B695A60BB695A1CBA61D7
S315010004D01B781A467B699A60BB695A1CBA611B78FC
S315010004E01B027A6992681A447B699A60BB695A1C35
S315010004F0BA611B781B047A6992681A447B699A600F
S31501000500BB695A1CBA611B781B067A6992681A4440
S315010005107B699A60BB695A1CBA611B789AB27B697E
S315010005209A81BB695A1CBA611B7819027B699B893E
S315010005309AB28BB213449AB27B699A81BB695A1CEF
S31501000540BA611B789AB27B69DA81BB695A1CBA61B6
S315010005501B7819027B69DB899AB28BB213449AB272
S315010005607B69DA81BB695A1CBA611B789AB27B69CD
S315010005701A82BB695A1CBA611B7819027B691B8AEC
S315010005809AB28BB213449AB27B691A827B691B8A2F
S315010005909BB2002B05D07B691B8A9BB2B3F5007F0A
S315010005A001D90123A2E0BB695A1CBA611A787B6999
S315010005B09A74BB695A1CBA611A787B69DA74BB6989
S315010005C05A1CBA611A787B691A75BB695A1CBA61D9
S315010005D01A787B695A75BB695A1CBA611A787B69A4
S315010005E09A75BB695A1CBA611A787B69DA75BB6957
S315010005F05A1CBA611A787B691A76BB695A1CBA61A8
S315010006001A787B695A76BB695A1CBA611A787B6972
S315010006109A76BB695A1CBA611A787B69DA767B6964
S31501000620BA69DA6161E0FB880B2B5CD1FB683B613F
S31501000630BB695A1CBA611B781A463B695A60BB6989
S315010006405A1CBA611B781B023A6952681A443B6903
S315010006505A60BB695A1CBA611B781B043A69526815
S315010006601A443B695A60BB695A1CBA611B781B065E
S315010006703A6952681A443B695A60BB695A1CBA61A5
S315010006801B781A463B691A60BB695A1CBA611B780A
S315010006901B023A6912681A443B691A60BB695A1C03
S315010006A0BA611B781B043A6912681A443B691A60DD
S315010006B0BB695A1CBA611B781B063A6912681A444F
S315010006C03B691A60BB695A1CBA611A783B691A728E
S315010006D0BB695A1CBA611A783B695A72BB691A78A6
S315010006E03B699A7201E00123FB77FB7F18462437A9
S315010006F0BD4680BC7047000080B485B000AF03469C
S315010007000A46FB711346BB710023FB81FB79042B5F
S315010007100DD8FB79094A32F81330FB81FB79022B9C
S3150100072005D1BB79012B02D1FB890333FB81FB89FF
S3150100073018461437BD4680BC704700BFC019010179
S3150100074080B485B000AF78607B68DB7A002B02D17C
S315010007500123FB8101E00423FB81FB891846143741
S31501000760BD4680BC704780B485B000AF78607B68B9
S31501000770DB7A002B02D10223FB8101E00523FB81F9
S31501000780FB8918461437BD4680BC704780B483B0D8
S3150100079000AF78600B467B807B8803F00103002B5A
S315010007A003D07B6801225A7202E07B6800225A72EA
S315010007B07B8803F00203002B03D07B6801229A7227
S315010007C002E07B6800229A727B8803F00403002B07
S315010007D003D07B680122DA7202E07B680022DA72BA
S315010007E07B8803F02003002B03D07B6801221A7358
S315010007F002E07B6800221A737B8803F01003002B4A
S3150100080003D07B6801229A7302E07B6800229A7307
S315010008107B6800225A737B6800221A727B68002269
S315010008201A7000225A7000229A700022DA707B68D0
S3150100083000221A7100225A7100229A710022DA717D
S3150100084000BF0C37BD4680BC7047000080B485B040
S3150100085000AF0346FB800023FB60FB8803F4805353
S31501000860002B03D04FF08043FB601CE0FB8803F4B0
S315010008700053002B03D04FF04023FB6013E0B7F980
S315010008800630002B02DA0B4BFB600CE0FB8803F40D
S315010008908043002B07D0FB8844F23D02934202D8E5
S315010008A04FF00043FB60FB6818461437BD4680BC19
S315010008B0704700BF00180E4080B485B000AF0346F4
S315010008C0FB803223FB60FB8803F48043002B2BD093
S315010008D0FB8844F23D02934226D8FB88A3F5804368
S315010008E00F3B072B1DD801A252F823F01309000173
S315010008F0130900011B090001230900012309000155
S3150100090023090001230900010D0900016423FB608D
S315010009100AE04FF47A73FB6006E04FF4FA63FB607A
S3150100092002E03223FB6000BFFB6818461437BD4660
S3150100093080BC704780B588B000AFF860B9601346D7
S31501000940FB80FB88042B19D8FB88013BFA6813440A
S31501000950FB61BB68BB610023FB820AE0FB695A1E8F
S31501000960FA61BA69511CB96112781A70FB8A0133AE
S31501000970FB82FA8AFB889A42F0D305E0FB881A4685
S31501000980B968F868024B984700BF2037BD4680BD5D
S3150100099051C5000180B586B000AFF860B960134655
S315010009A0FB80FB687B617B695A1C7A6101221A70A4
S315010009B07B695A1C7A61104A1288120A92B2D2B223
S315010009C01A707B695A1C7A610B4A1288D2B21A7064
S315010009D07B695A1C7A61FA88D2B21A70FB881A4668
S315010009E0B9687869054B9847FB8804339BB218466A
S315010009F01837BD4680BD00BF0C1100203509000126
S31501000A0080B483B000AF7860034A7B68136000BF8F
S31501000A100C37BD4680BC70470410002080B483B0FB
S31501000A2000AF7860034A7B68136000BF0C37BD4690
S31501000A3080BC70470810002090B58FB000AF786079
S31501000A400B467B807B88002B00F0EE807B681B7851
S31501000A5087F837307B6801333B6397F83730062BCD
S31501000A6000F2E48001A252F823F000BF890A0001D6
S31501000A702D0C00015B0B00012D0C00012D0C00015A
S31501000A802D0C00010D0C00013B6B5A1C3A631B78BF
S31501000A909BB21B02FB853B6B5A1C3A631B789AB2CD
S31501000AA0FB8D1344FB85654AFB8D13803B6B5A1CFA
S31501000AB03A631B7887F82D30614B1B685C6897F8A1
S31501000AC02D20F88D00235F49A0470346002B00F037
S31501000AD0AF805B4B1B68DB68BB62BB6A5A1CBA62A0
S31501000AE001221A70BB6A5A1CBA62FA8D120A92B2B4
S31501000AF0D2B21A70BB6A5A1CBA62FA8DD2B21A7095
S31501000B00BB6A5A1CBA6297F82D201A7097F82D30D5
S31501000B10042B07D997F82D301A464A49B86A4A4B29
S31501000B20984707E097F82D309BB21A464549B86AAF
S31501000B30464B984797F82D30BA6A1344BB62444B2B
S31501000B401B683F4A1268D068BA6A3D490968C96894
S31501000B50521A92B2114698476AE03B6B5A1C3A63A5
S31501000B601B789BB21B02FB843B6B5A1C3A631B78B6
S31501000B709AB2FB8C1344FB843B6B5A1C3A631B7879
S31501000B8087F8253097F825309BB21A46396B2D48E0
S31501000B902E4B98472A4B1B689B6897F8252092B2E3
S31501000BA0F88C284998470346002B43D0244B1B68F1
S31501000BB0DB683B623B6A5A1C3A6203221A703B6A43
S31501000BC05A1C3A62FA8C120A92B2D2B21A703B6A73
S31501000BD05A1C3A62FA8CD2B21A703B6A5A1C3A62B1
S31501000BE097F825201A703B6A5A1C3A6201221A703C
S31501000BF0174B1B68124A1268D0683A6A104909688D
S31501000C00C968521A92B21146984713E007F10C03CC
S31501000C10396B18460F4B9847094B1B681B6807F140
S31501000C200C021046984706E000BF04E000BF02E050
S31501000C3000BF00E000BF3C37BD4690BD0C1100204F
S31501000C40041000200C10002051C5000135090001D7
S31501000C5008100020610F000180B584B000AF7860F4
S31501000C6039607B68FB60FB685A1CFA6008221A70BF
S31501000C70FB685A1CFA603A68D27C1A70FB685A1CE7
S31501000C80FA603A68927C1A70FB685A1CFA603A68F4
S31501000C90127D1A70FB685A1CFA603A68127E1A7045
S31501000CA0FB685A1CFA603A68527E1A70FB685A1C35
S31501000CB0FA603A68D27D1A70FB685A1CFA603A6883
S31501000CC0927D1A70FB685A1CFA603A68527D1A7056
S31501000CD0FB685A1CFA603A68928992B2120A92B279
S31501000CE0D2B21A70FB685A1CFA603A68928992B2BB
S31501000CF0D2B21A70FB685A1CFA603A68D28992B26B
S31501000D00120A92B2D2B21A70FB685A1CFA603A6899
S31501000D10D28992B2D2B21A70FB685A1CFA603A684A
S31501000D201268120ED2B21A70FB685A1CFA603A683F
S31501000D301268120CD2B21A70FB685A1CFA603A6831
S31501000D401268120AD2B21A70FB685A1CFA603A6823
S31501000D501268D2B21A70FB685A1CFA603A68526875
S31501000D60120ED2B21A70FB685A1CFA603A685268BF
S31501000D70120CD2B21A70FB685A1CFA603A685268B1
S31501000D80120AD2B21A70FB685A1CFA603A685268A3
S31501000D90D2B21A70FB685A1CFA603A689268120E4F
S31501000DA0D2B21A70FB685A1CFA603A689268120C41
S31501000DB0D2B21A70FB685A1CFA603A689268120A33
S31501000DC0D2B21A70FB685A1CFA603A689268D2B2BB
S31501000DD01A70FB685A1CFA603A68927E1A70FB68B0
S31501000DE05A1CFA603A68D27E1A703B68DB7C002B8B
S31501000DF01FD13B681B8A9BB2033B7B81FB685A1C54
S31501000E00FA607A89120A92B2D2B21A70FB685A1C37
S31501000E10FA607A89D2B21A703B68DB6903337A8940
S31501000E201946F868184B98477B89FA681344FB60A2
S31501000E3021E0FB685A1CFA603A68128A92B2120AD9
S31501000E4092B2D2B21A70FB685A1CFA603A68128AD8
S31501000E5092B2D2B21A703B68D9693B681B8A9BB2BF
S31501000E601A46F868084B98473B681B8A9BB21A4694
S31501000E70FB681344FB60FA687B68D31A9BB2184679
S31501000E801037BD4680BD00BF51C5000180B485B095
S31501000E9000AF786039607B68FB60FB685A1CFA60BA
S31501000EA007221A70FB685A1CFA603A68927A1A701D
S31501000EB0FB685A1CFA603A68527A1A70FB685A1C27
S31501000EC0FA603A685268120ED2B21A70FB685A1C5E
S31501000ED0FA603A685268120CD2B21A70FB685A1C50
S31501000EE0FA603A685268120AD2B21A70FB685A1C42
S31501000EF0FA603A685268D2B21A70FB685A1CFA60F4
S31501000F003A681268120ED2B21A70FB685A1CFA605D
S31501000F103A681268120CD2B21A70FB685A1CFA604F
S31501000F203A681268120AD2B21A70FB685A1CFA6041
S31501000F303A681268D2B21A70FA687B68D31A9BB201
S31501000F4018461437BD4680BC704780B483B000AFE5
S31501000F5078603960002318460C37BD4680BC70475F
S31501000F6080B584B000AF786039603B68FB60FB6890
S31501000F705A1CFA601A787B68DA72FB685A1CFA60A6
S31501000F801A787B689A71FB685A1CFA601A787B6832
S31501000F905A72FB685A1CFA601A787B68DA71FB6828
S31501000FA05A1CFA601A787B689A72FB685A1CFA60B6
S31501000FB01B781A067B681A60FB685A1CFA601B7854
S31501000FC01B047A6812681A447B681A60FB685A1C0B
S31501000FD0FA601B781B027A6812681A447B681A60E9
S31501000FE0FB685A1CFA601B781A467B681B681A4410
S31501000FF07B681A60FB685A1CFA601A787B681A7259
S31501001000FB685A1CFA601B789BB21B029AB27B687A
S315010010109A80FB685A1CFA601B789BB27A689288A0
S3150100102092B213449AB27B689A807B681B4AC3F8D2
S315010010300D207B689B889BB2B3F54A7F05D97B68F7
S3150100104000221A7100225A7124E07B685B7A002B18
S3150100105018D1124BAA221A70104BAA225A700F4BA2
S31501001060AA229A707B689B889BB203339AB27B68EB
S315010010709A800B487B689B889BB21A46F968094B94
S31501001080984707E07B689B889BB21A46F968034834
S31501001090044B98471037BD4680BD00BF1011002094
S315010010A01311002051C5000180B584B000AF03467D
S315010010B03960FB71FB79012B03D138682D4B9847B9
S315010010C002E038682C4B98470223FB732B4B984759
S315010010D00346BB7345E0BB7B002B21D1284B1B6824
S315010010E0002B03D0264B1B6800209847FB7B5A1E1A
S315010010F0FA73002B0BD1224B1B68002B03D0204B1C
S315010011001B68012098470223FB7301232DE01D4B29
S315010011109B696421012098471A4B5B6898470AE04E
S31501001120BB7B032B07D1164B1B68002B03D0144B3B
S315010011301B6802209847FB79012B03D138680D4BB8
S31501001140984702E038680C4B98470F4B1B78DBB287
S31501001150002B02D00D4B01221A70084B984703460B
S31501001160BB73BB7B022BB6D1002318461037BD4695
S3150100117080BD00BFA1210001D12100017D22000116
S31501001180E8820020CC820020BC1C0020BD1C00206F
S3150100119080B588B000AF7860396007F10C03FB6158
S315010011A00023FB820823BB82FB69BB6107F11403A1
S315010011B0194600202E4B98470346002B53D1386819
S315010011C02C4B98473B681B689BB2194678682A4B9B
S315010011D09847FB695A1CFA611B781A467B681A60A4
S315010011E0FB695A1CFA611B781B027A6812681A4459
S315010011F07B681A60FB695A1CFA611B781B047A68C2
S3150100120012681A447B681A60FB695A1CFA611B78DA
S315010012101B067A6812681A447B681A60FB695A1CB5
S31501001220FA611B781A467B685A60FB695A1CFA6197
S315010012301B781B027A6852681A447B685A60FB69FC
S315010012405A1CFA611B781B047A6852681A447B6837
S315010012505A60FB695A1CFA611B781B067A68526848
S315010012601A447B685A6000BF2037BD4680BD00BF67
S31501001270A9100001912200018D07000180B588B0F7
S3150100128000AF664B1B680133644A1360644B1B78DD
S31501001290002B00F0BA80634B9B691421022098470A
S315010012A03A4607F11003114618465F4B984700234B
S315010012B0FB772EE0FB7F07F12002134413F8073C6E
S315010012C0002B23D0FB7F19460220584B9847034633
S315010012D07B81FA7F13469B0013445B001344544AF7
S315010012E01344FB600B233B8107F1080319460020D9
S315010012F0504B98470346002B08D1FB7F4E4A0121EC
S31501001300D1544E4B1B6801334C4A1360FB7F0133AA
S31501001310FB77FB7F012BCDD9FB7E002B24D000214F
S315010013200020424B984703467B81454BFB607B6916
S315010013309BB23B813B89002B03D03B89B3F5007FF0
S3150100134001D901233B8107F1080319460020394BD6
S3150100135098470346002B07D13A4B01221A703A4BA4
S315010013601B680133384A13603B7F002B1AD00021DA
S3150100137001202E4B984703467B81344BFB601C238F
S315010013803B8107F10803194600202A4B984703467B
S31501001390002B07D12E4B01221A702E4B1B680133ED
S315010013A02C4A1360BB7F002B29D07B691B0C9AB298
S315010013B0294B1A80284B1B889BB2002B05D0264B44
S315010013C01B889BB2B3F5007F02D9234B01221A80F9
S315010013D000210420154B984703467B811F4BFB6078
S315010013E01D4B1B889BB23B8107F108031946002060
S315010013F0104B98471A4B1B680133194A1360094B66
S315010014009B6914210220984703E0064B5B69002083
S31501001410984700BF2037BD4680BD00BFC81C0020CD
S31501001420C61C0020CC82002091110001F9060001A2
S315010014306C180020A9100001C01C0020D41C00203B
S3150100144068160020C21C0020CC1C00204C1600206F
S31501001450C31C0020D01C0020C41C002084180020BE
S31501001460D81C002080B590B000AF396011461A46ED
S315010014700346FB800B467B7113463B715D4B1B7824
S31501001480002B00F0B180FB8803F47043002B00F0C1
S315010014909080FB88C3F30B03BB63FB881846564B4E
S315010014A0984778637B6B002B04D13B6800221A7046
S315010014B000239AE0BA6B7B6B1344BB634F4B3B63D0
S315010014C008233B8209237B823B6B7B617B79FB850E
S315010014D03B6B5A1C3A63BA6B120ED2B21A703B6B53
S315010014E05A1C3A63BA6B120CD2B21A703B6B5A1C75
S315010014F03A63BA6B120AD2B21A703B6B5A1C3A6340
S31501001500BA6BD2B21A703B6B5A1C3A63FA8D120A45
S3150100151092B2D2B21A703B6B5A1C3A63FA8DD2B2AE
S315010015201A7007F1100319460120354B98473B798C
S3150100153083F00103DBB2002B01D0002355E04FF607
S31501001540FF73FB87EFF312837B627B6ABB62BB6A25
S31501001550002B14D000233B623B6A83F311880EE013
S31501001560FB8F5A1EFA87002B09D1BB6A002B04D0C8
S31501001570BB6AFB61FB6983F31188002335E0214BCC
S315010015801B889BB2002BEBD0BB6A002B04D0BB6A35
S31501001590BB61BB6983F311881A4B1B889BB21A4640
S315010015A016493868184B9847164B00221A800123B2
S315010015B01BE0FB88B3F5007F0ED17B799BB23B81A3
S315010015C000237B813B68FB6007F108031946002075
S315010015D00B4B9847012308E07A79FB88396818464E
S315010015E00A4B9847034600E0002318464037BD469C
S315010015F080BD00BFC61C00204D08000184180020D4
S31501001600A9100001C41C002051C50001911D000153
S3150100161080B58AB000AF03463960FB801346BB80B4
S31501001620FB8803F47043002B00F0A180FB88C3F311
S315010016300B033B62FB881846534B984702463B6AAD
S3150100164013443B62514B7B62BB8808339BB2BB811F
S315010016500923FB817B6A3B61B7F90430C3F30803B5
S315010016601BB243F480631BB2FB837B6A5A1C7A620A
S315010016703A6A120ED2B21A707B6A5A1C7A623A6AB6
S31501001680120CD2B21A707B6A5A1C7A623A6A120A30
S31501001690D2B21A707B6A5A1C7A623A6AD2B21A704C
S315010016A07B6A5A1C7A62FA8B120A92B2D2B21A7009
S315010016B07B6A5A1C7A62FA8BD2B21A703B68BB619A
S315010016C0BB88042B1ED17B6A5A1C7A62BA69511CEB
S315010016D0B96112781A707B6A5A1C7A62BA69511C0E
S315010016E0B96112781A707B6A5A1C7A62BA69511CFE
S315010016F0B96112781A707B6A5A1C7A62BA691278D1
S315010017001A701DE0BB88022B10D17B6A5A1C7A62C3
S31501001710BA69511CB96112781A707B6A5A1C7A62CD
S31501001720BA69511CB96112781A7009E0BB881A4668
S31501001730B969786A164B9847BB887A6A13447B6203
S315010017407B6A124A9B1A9BB2BB8107F10C031946AD
S315010017500120104B9847FB8818460F4B9847786134
S315010017600E4B9B69796902209847012307E0BB88E4
S31501001770DAB2FB8839681846094B9847034618467A
S315010017802837BD4680BD00BF4D0800013814002032
S3150100179051C50001A9100001B9080001CC82002041
S315010017A0291E000180B582B000AF78600B467B80B0
S315010017B0064B1B78002B04D07B8819467868044BAE
S315010017C0984700BF0837BD4680BD00BFC61C002034
S315010017D0390A000180B586B000AF7860354B1B78B9
S315010017E0002B62D079680020334B98471122796823
S315010017F03248334B98470346FB82FB8A002B52D073
S31501001800304B1B8803F00703002B2FD0FB8ABB81CB
S3150100181078682D4B98470346FB81284B3B6107F1BE
S315010018200C0319460120294B9847294B9B696421D2
S3150100183002209847274B1B78DBB283F00103DBB20A
S31501001840002B27D07B689B889BB2BB817868224B93
S3150100185098470346FB81FB8A184A13443B6107F10B
S315010018600C0319460120194B984713E07B689B88A6
S315010018709AB2FB8A13449BB2BB817868124B984794
S315010018800346FB810D4B3B6107F10C031946012011
S315010018900E4B9847114B1B78DBB20133DAB20F4B73
S315010018A01A70002302E0022300E0FF2318461837CE
S315010018B0BD4680BDC61C00204B0F00013814002018
S315010018C011030001DC1C002041070001A9100001E1
S315010018D0CC820020C01C002067070001BC1C002030
S315010018E080B582B000AF78607B681B680B4A1360D5
S315010018F07B685B680A4A13607B689B68094A1360C8
S315010019007B68DB68084A13607B689B681846074B4F
S31501001910984700BF0837BD4680BD00BFC48200207E
S31501001920C8820020EC820020E88200201D0A000106
S3150100193080B500AF1D4B00221A601D4B00221A60B4
S315010019401C4B00221A601C4B98471C4B1B6898477E
S315010019501A4B5B689847194B9B68194898470222AE
S3150100196000211848184B9847184B00221A70184B3B
S3150100197000221A70174B00221A8040F21122002110
S315010019801548114B98474FF40872002113480E4B26
S3150100199098471622002112480B4B984740F2252200
S315010019A000211048084B984700BF80BDC482002023
S315010019B0C8820020EC82002005220001CC82002092
S315010019C07D120001C01C002085C60001C21C00203A
S315010019D0C31C0020C41C0020381400204C16002013
S315010019E06C180020841A002080B582B000AF7860A0
S315010019F039601C2239682048204B98477B68204A69
S31501001A001A607B681F4A5A607B681F4A9A607B6826
S31501001A101E4ADA607B681E4A1A611E4B98471E4BA6
S31501001A20184A1A601C4B184A5A601B4B174A9A608F
S31501001A30194B1A4ADA601848194B9847194B002274
S31501001A401A60194B00221A60184B00221A60184BB3
S31501001A5000221A70174B00221A70174B9847022260
S31501001A6016494FF48870164B9847164B984700BF96
S31501001A700837BD4680BD00BFCC82002051C500019C
S31501001A80E1180001D51700016514000111160001C6
S31501001A90A5170001311B0001AC1C0020841A00208F
S31501001AA0010A0001CC1C0020D41C0020D81C0020F7
S31501001AB0BC1C0020BD1C00206D1D0001DC1C00208B
S31501001AC0911D00013119000180B586B000AF786023
S31501001AD03960134B5B690020984739687868114B68
S31501001AE0984700237B8208233B8207F108037B6129
S31501001AF007F11003194600200B4B98470346012BAB
S31501001B0001D1012307E0094B01221A70044B5B69DD
S31501001B1001209847002318461837BD4680BD00BFEF
S31501001B20CC820020FD1E0001A9100001C61C002068
S31501001B3080B500AF054B00221A70054B5B6900208A
S31501001B409847034B5B68984700BF80BDC61C0020C1
S31501001B50CC82002080B592B000AF724B1B78002B6F
S31501001B6000F0DD80704B1B78DBB2002B19D06E4B79
S31501001B7000221A706D4B00221A70FF2387F8393044
S31501001B8000233B6300237B63694B1B68002B00F03A
S31501001B90C580674B1B6807F130021046984700BFA6
S31501001BA0BCE0002387F8473053E097F84730614A95
S31501001BB0D35CDBB2002B47D05C4B1B78DBB2013B1D
S31501001BC0DAB25A4B1A7097F8472013469B00134412
S31501001BD05B001344584A991807F124030B2218464F
S31501001BE0564B9847034687F84630554B1B68002BE2
S31501001BF017D097F84630002B13D107F12403194665
S31501001C005048514B98470346A7F84430B7F844303B
S31501001C10002B06D04A4B1B68B7F8442011464948A9
S31501001C209847434B1B68002B09D097F84630002B89
S31501001C3005D13F4B1B6807F124021046984797F8D8
S31501001C4047303C4A0021D15497F84730013387F891
S31501001C50473097F84730012BA7D93C4B1B78DBB2AD
S31501001C60002B3BD03A4B1B78DBB2002B36D03B1D09
S31501001C70202238491846314B9847034687F84330A6
S31501001C802F4B1B68002B16D097F84330002B12D12F
S31501001C903B1D19462B48304B98470346A7F8403061
S31501001CA0B7F84030002B06D0254B1B68B7F840200B
S31501001CB0114624489847294B1B68002B08D097F8F2
S31501001CC04330002B04D1254B1B683A1D104698471B
S31501001CD01E4B00221A701E4B00221A70204B1B88C5
S31501001CE09BB2002B1BD0164B1B68002B12D01C4B32
S31501001CF01B889BB21A461B4912481B4B9847034641
S31501001D00FB87FB8F002B05D00D4B1B68FA8F114605
S31501001D100C489847124B00221A8000E000BF483752
S31501001D20BD4680BDC61C0020BD1C0020BC1C002079
S31501001D30C4820020C01C00206C180020150400017C
S31501001D40EC820020841A00208D0E0001C31C0020A5
S31501001D50C21C00204C160020590C0001C88200202C
S31501001D60C41C0020841800209509000180B500AF2D
S31501001D70044B98470246044B1A60044B984700BF30
S31501001D8080BD00BFFD020001E01C0020B902000178
S31501001D9080B584B000AF03463960FB8013467B7182
S31501001DA00523BB810023FB8111E01D4B1968FA89CC
S31501001DB013465B0013449B000B441B88FA889A4226
S31501001DC002D1FB89BB8105E0FB890133FB81FB89DC
S31501001DD0042BEAD9BB89042B01D900231CE0104B43
S31501001DE01968BA8913465B0013449B000B441B7A9E
S31501001DF07A799A4201D000230EE0094B1968BA8913
S31501001E0013465B0013449B000B445B687A791946C1
S31501001E103868044B9847012318461037BD4680BDE4
S31501001E20E01C002051C5000180B584B000AF034617
S31501001E303960FB8013467B710523BB810023FB813F
S31501001E4011E0244B1968FA8913465B0013449B0081
S31501001E500B441B88FA889A4202D1FB89BB8105E0B3
S31501001E60FB890133FB81FB89042BEAD9BB89042B4E
S31501001E7001D9002329E0174B1968BA8913465B007B
S31501001E8013449B000B441B7A7A799A4201D00023B2
S31501001E901BE0104B1968BA8913465B0013449B007B
S31501001EA00B445B7A002B01D000230EE0094B196825
S31501001EB0BA8913465B0013449B000B445B687A792D
S31501001EC039681846044B9847012318461037BD4612
S31501001ED080BD00BFE01C002051C5000180B500AFE8
S31501001EE0044B9847044B9B6905210120984700BF85
S31501001EF080BD00BF79210001CC82002080B483B06F
S31501001F0000AF78603960054A7B681360044A3B6814
S31501001F10136000BF0C37BD4680BC7047E41C00202F
S31501001F20E81C002080B500AF104B5B690020984784
S31501001F300E4B5B6898470E4B98470E4B98470E4BD6
S31501001F401A680E4B1B68194610460D4B98470D4BE8
S31501001F5098470D4B9847054B9B690A2101209847E5
S31501001F60024B5B690120984700BF80BDCC820020EF
S31501001F701D22000129210001E41C0020E81C00208B
S31501001F8051200001D92000017921000180B582B0DC
S31501001F9000AF78607B689B881A464FF6FE73134044
S31501001FA045F2346293420ED17B681B6803F4004309
S31501001FB0002B02D0224B984701E0224B9847224B37
S31501001FC003221A7039E07B689B8841F22212934200
S31501001FD02DD11D4B1B78002B07D01B4B1B78022BD9
S31501001FE003D0194B1B78032B1DD1174B02221A70F4
S31501001FF07B681B6803F47F43002B10D07B680022AB
S315010020001A60124B1B780133DAB2104B1A700F4B60
S315010020101B78032B0FD90C4B00221A700BE00B4BCC
S3150100202000221A7007E0084B00221A7005E0064BE1
S3150100203000221A7000E000BF00BF0837BD4680BD10
S31501002040DD1E0001251F0001EC1C0020F81C0020EC
S3150100205090B589B002AF786039603B68FB607B68F8
S315010020607B6100233B6100237B722BE0FB68B3F5A8
S31501002070007F03D94FF400737B810BE0FB687B8102
S315010020807B89DBB203F003037B727B7A9AB27B898D
S3150100209013447B810F4BDC687A89002300937B69AB
S315010020A039690120A0477A897B7AD31A1A46FB68D7
S315010020B09B1AFB607B897A6913447B617B893A6948
S315010020C013443B61FB68002BD0D100BF1C37BD46D2
S315010020D090BD00BFCC82002090B585B002AF0F4BFA
S315010020E07B607B681B0EDBB2FB707B681B0CDBB273
S315010020F0BB707B681B0ADBB27B707B68DBB23B7013
S31501002100074BDC683A46002300931346042205492F
S315010021100020A04700BF0C37BD4690BD000001015D
S31501002120CC82002000180E4090B585B002AF0F4B4F
S315010021307B607B681B0EDBB2FB707B681B0CDBB222
S31501002140BB707B681B0ADBB27B707B68DBB23B70C2
S31501002150074BDC683A4600230093134604220549DF
S315010021600020A04700BF0C37BD4690BD010001010C
S31501002170CC82002000180E4090B583B002AF074B09
S31501002180DC68002300930023002200214AF26A60E2
S31501002190A04700BF0437BD4690BD00BFCC820020DA
S315010021A080B582B000AF7860064B1B69064A796834
S315010021B0012098470448054B984700BF0837BD469C
S315010021C080BD00BFCC820020F01C00208D1F0001C5
S315010021D080B584B000AF7860074B1B69074A796800
S315010021E0002098470346FB730448054B9847FB7B41
S315010021F018461037BD4680BDCC820020F01C002059
S315010022008D1F000180B400AF034B00221A7000BF7E
S31501002210BD4680BC704700BFEC1C002090B585B060
S3150100222002AF5323FB714523BB71AC237B71BA23E8
S315010022303B71114BDC683A1D0023009313460422BF
S3150100224000214DF60560A047AC23FB71BA23BB7193
S3150100225053237B7145233B71074BDC683A1D0023F1
S3150100226000931346042200214DF60560A04700BFE6
S315010022700C37BD4690BD00BFCC82002080B400AFB4
S31501002280024B1B781846BD4680BC7047EC1C0020EB
S3150100229080B582B000AF7860082204497868044BA3
S315010022A0984700BF0837BD4680BD00BFF01C00201F
S315010022B051C5000180B582B000AF78607B68072BFD
S315010022C031D801A252F823F025230001E9220001A9
S315010022D0F1220001F9220001012300010923000175
S315010022E0112300011B2300010020114B98471AE01E
S315010022F001200F4B984716E000200E4B984712E03D
S3150100230010200C4B98470EE020200A4B98470AE014
S315010023103E210020084B984705E03E210120064B4F
S31501002320984700E000BF00BF0837BD4680BD00BF2B
S3150100233049480001B54800012549000180B582B030
S3150100234000AF78607B68072B26D801A252F823F0EC
S315010023507123000175230001752300018723000104
S3150100236087230001872300018723000187230001BA
S31501002370012312E00B4B98470346002B14BF0123A0
S315010023800023DBB209E0084B98470346002B14BF34
S3150100239001230023DBB200E0002318460837BD46BF
S315010023A080BD00BF814800019D49000180B483B012
S315010023B000AF78607B68072B25D801A252F823F07D
S315010023C0E1230001E7230001ED230001F3230001CE
S315010023D0F7230001FB230001FF2300010324000171
S315010023E04FF4FA4310E04FF400430DE04FF400437D
S315010023F00AE0084B08E0084B06E0084B04E000231E
S3150100240002E0002300E0002318460C37BD4680BCDD
S31501002410704700BF00127A000024F40000366E01F6
S3150100242080B582B000AF0346FB7100BFFB79184649
S31501002430054B9847034683F00103DBB2002BF5D128
S3150100244000BF0837BD4680BD3D23000180B586B07B
S3150100245000AFF8607A603B600B46FB72FB7A184668
S315010024600D4B984702467B68B2FBF3F37B617B69B0
S315010024703A6802FB03F37B613B68013B1A04074B95
S3150100248013407A68D2B2134343F47C52FB681A6054
S3150100249000BF1837BD4680BDAD2300010000FF1FF8
S315010024A080B582B000AF786039603B68002B06D1F9
S315010024B0084B9847084A7B681B68936205E0074BFF
S315010024C09847054A7B681B68D36200BF0837BD463B
S315010024D080BD00BFB549000100040E40E549000179
S315010024E080B582B000AF78607B68002B03D1084BC2
S315010024F09847034607E07B68012B03D1054B9847B4
S31501002500034600E0002318460837BD4680BD00BFDC
S31501002510CD490001FD49000180B582B000AF0346F7
S31501002520FB71FB790033012B08D8FB791846064B62
S315010025309847FB791846054B984700E000BF00BF56
S315010025400837BD4680BD00BFB52200012124000128
S3150100255080B582B000AF786000BF7868044B9847B9
S315010025600346002BF9D0002318460837BD4680BD27
S31501002570E124000180B500AF0120044B98470246D3
S3150100258040F6723303FB02F3184680BDAD2300010A
S3150100259080B500AF024B98470346184680BD00BF81
S315010025A07525000190B5A7B002AF2148214B984788
S315010025B00120214B984707F1080040F672330122AA
S315010025C001211E4CA04707F10803002118461C4BA8
S315010025D0984700201B4B984700201B4B98471B4BE5
S315010025E098471B4B984703461846124B9847194B79
S315010025F01B68194A934217D8164B1B68174A934210
S3150100260012D907F10C022023009313460F220E2143
S315010026101348144CA047FB6C9BB2C7F88C30D7F813
S315010026208C101148114B984700BF9437BD4690BD99
S31501002630000E270791710001192500014D240001A3
S31501002640A124000151250001C94700016D70000157
S3150100265091250001D8010020C0EF0B083F2C42064E
S31501002660000A0E400B00002010140E40234F0001FB
S3150100267080B483B000AFEFF310837B607B68002BDF
S315010026800CBF01230023DBB23B6072B6BFF35F8F41
S31501002690044B00221A703B6818460C37BD4680BCB5
S315010026A0704700BFD401002080B483B000AF7860CA
S315010026B07B68002B14BF01230023DBB218460C37BD
S315010026C0BD4680BC7047000080B582B000AF78601F
S315010026D07868074B98470346002B05D0054B012226
S315010026E01A70BFF35F8F62B600BF0837BD4680BD63
S315010026F0A9260001D401002080B582B000AF0023D5
S31501002700BB714F4B00221A70BB794E4A002122F849
S315010027101310BA794C4913469B0013445B000B44D2
S31501002720A1221A70BA79484913469B0013445B00EB
S315010027300B44013320221A70BA79434913469B0090
S3150100274013445B000B44023300221A80BB79002B31
S3150100275002D10023FB7102E00023FB7100BFBA79AD
S31501002760FB7998B2384913469B0013445B000B442E
S31501002770043302461A80BA79334913469B0013443F
S315010027805B000B44063302221A80BA792E4913469E
S315010027909B0013445B000B44083300221A80BA796C
S315010027A02A491346DB009B1A0B4400221A700022A9
S315010027B062F03D025A70002242F001029A70002234
S315010027C0DA70BA7921491346DB009B1A0B440433AC
S315010027D000221A70BA791D491346DB009B1A0B4475
S315010027E0053300221A70BA7918491346DB009B1A81
S315010027F00B44063308221A70BA791346DB009B1A7A
S31501002800124A1A44BB7911461846114B9847BB79AF
S315010028101846104B9847034683F00103DBB2002BA1
S3150100282001D0002307E0064B1B78DBB20133DAB295
S31501002830034B1A70012318460837BD4680BD00BFF9
S31501002840121D0020041D0020081D0020FC1C002074
S3150100285091A20001A3A1000180B582B000AF0023BF
S31501002860FB712D4B00221A70FB792C4A0021D154A1
S31501002870FB792B4A0021D154FB792A4A0021D154F4
S31501002880FB79294A002122F82310FB79264A9B006D
S31501002890134400225A80FB79244A002122F813109E
S315010028A0FB791846224B9847FB79224A0021D154DD
S315010028B0FB79214A0021D154FB79204A002122F8D3
S315010028C02310FB791D4A9B00134400225A80FB7991
S315010028D01B4A002122F81310FB791846194B984719
S315010028E0034683F00103DBB2002B01D000230FE086
S315010028F0094B1B78DBB20133DAB2074B1A70064B70
S315010029001B78DBB2012B02D10F4B01221A70012376
S3150100291018460837BD4680BD131D0020341E002011
S31501002920381E00202C1E0020281E0020301E0020EC
S31501002930492D0001A41D00209C1D0020981D00208A
S31501002940A01D0020252B0001141D002080B400AF1E
S31501002950054B1B78DBB2013BDAB2034B1A7000BFA1
S31501002960BD4680BC704700BF121D002080B582B0F5
S3150100297000AF0A4B1B78DBB2013BDAB2074B1A7088
S31501002980064B1B78FB71FB791846054B9847054B9F
S3150100299000221A7000BF0837BD4680BD131D0020F6
S315010029A0B9A10001141D002080B582B000AF314BE2
S315010029B098470346FB71304B1B785BB2002B1CDA40
S315010029C02D4B1B7803F06003202B16D12A4B5B7825
S315010029D0212B12D1284BDB88072B01D0002345E0A0
S315010029E0FA791346DB009B1A244A1344224A936060
S315010029F0214B07229A81012338E01F4B1B785BB2DA
S31501002A00002B32DB1C4B1B7803F06003202B2CD1EF
S31501002A10194B5B78202B02D0222B16D025E0164BC2
S31501002A20DB88072B01D0002320E0134B144A1A61DF
S31501002A30FA791346DB009B1A104A13440E4A936037
S31501002A400D4B07229A81012310E00B4B5B8803F0A3
S31501002A500103002B14BF01230023DAB2FB791146CF
S31501002A601846084B9847012300E00023184608370B
S31501002A70BD4680BDC12A000104830020FC1C002044
S31501002A80ED2A0001CDA1000180B400AF0023184654
S31501002A90BD4680BC704780B400AF00231846BD46D2
S31501002AA080BC704780B500AF034B1B781846034BBB
S31501002AB0984700BF80BD00BF391E0020492D000187
S31501002AC080B483B000AF084B9B88DBB2002B02D1E8
S31501002AD00023FB7102E00023FB7100BFFB7918465E
S31501002AE00C37BD4680BC70470483002080B582B098
S31501002AF000AF094B98470346FB71FA791346DB0091
S31501002B009B1A064A1A44FB7911461846044B984704
S31501002B1000BF0837BD4680BDC12A0001FC1C00204C
S31501002B2091A2000190B589B002AF0346FB71002363
S31501002B30FB712F4B98473861FB792E4AD35CFB73A7
S31501002B40FB792D4AD35CDBB2002B0ED1FB792B4AE4
S31501002B5032F813309AB2F979FB7B294849000B44C4
S31501002B6030F813309BB29A4204D23869254B984704
S31501002B70002338E0FB79214A002122F81310FB7962
S31501002B80FA7B002A0CBF01220022D2B21146194A51
S31501002B90D154FB79184A0121D1543869194B984708
S31501002BA0FB791846184B98470346002B03D0FB794F
S31501002BB01846164B9847FB79002B02D10223FB7569
S31501002BC002E00223FB7500BFFA79FB7B5200134436
S31501002BD09B010F4A1A44F87D0E4B009340230121B5
S31501002BE00D4CA047034618461C37BD4690BD00BF95
S31501002BF0712600019C1D0020A41D0020A01D00209F
S31501002C00981D0020C9260001952F0001E9A10001A8
S31501002C10181D00201D2C00018158000190B587B0B8
S31501002C2002AF03463960FB711346BB71BB79022BB8
S31501002C3002D10023FB7302E00023FB7300BFFB7983
S31501002C40002B2ED1FB7B194AD35CDBB2002B0CBFC8
S31501002C5001230023DBB2BB733B68002B0ED1FA7B49
S31501002C60BB7B520013449B01114A1A44B879114B9C
S31501002C70009340230121104CA04713E0FA7BBB7B54
S31501002C80396888B20D4952001344024621F81320CF
S31501002C90FB7B0B4A0021D154FB7B1846094B984715
S31501002CA000E000BF1437BD4690BD00BF9C1D00204B
S31501002CB0181D00201D2C000181580001981D0020BF
S31501002CC0A41D0020252B000180B584B000AF03466A
S31501002CD03960FB711346BB71BB79812B02D100238D
S31501002CE0FB7302E00023FB7300BFFB79002B1DD1B0
S31501002CF0FB7BFA7B0F498A5CD2B2002A0CBF012208
S31501002D000022D2B211460C4A5B000B44002122F884
S31501002D101310FB7B094A0021D154FB7B084A002191
S31501002D20D154FB7B1846074B984700E000BF10378C
S31501002D30BD4680BD2C1E0020281E0020381E002006
S31501002D40341E0020492D000190B589B002AF03461B
S31501002D50FB710023FB71FB79624AD35CDBB2002B6A
S31501002D6040F0BA80604B98470346002B09D0FB79A7
S31501002D705E4A32F813405E4B984703469C420AD19D
S31501002D80ADE0FB79594A32F813405A4B984703464E
S31501002D909C4200F0A380584B98473861FB79574A0B
S31501002DA0D35CFB75FA79FB7D55495200134431F822
S31501002DB01330002B1FD1534B1B8801339AB2514B51
S31501002DC01A80494B9847034683F00103DBB2002B77
S31501002DD003D04C4B1B88632B09D9434B98470346B9
S31501002DE0002B08D0474B1B88B3F5487F03D23869BF
S31501002DF0454B984773E0434B00221A80FB79434ABF
S31501002E00D35CDBB283F00103DBB2002B0AD0FB7982
S31501002E10FA7D002A0CBF01220022D2B21146374A9E
S31501002E20D15406E0FB7D002B0CBF01230023DBB24E
S31501002E30FB75FB792B4A0121D1543869324B9847EE
S31501002E40FA79FB7D2E495200134431F81330402B99
S31501002E5014BF01230023FB73FB7B002B16D0224BEF
S31501002E6098470346002B08D0FC79214B9847034627
S31501002E701A461E4B23F814200DE0FC791D4B98478A
S31501002E8003461A46194B23F8142004E0FB79174A26
S31501002E90002122F81310FB79002B02D18123BB7587
S31501002EA002E08123BB7500BFFA79FB7D5200134412
S31501002EB09B01174A9C18FA79FB7D1149520013446C
S31501002EC031F813301A46F97BB87D124B009313463D
S31501002ED02246114CA04702E000BF00E000BF1C37AC
S31501002EE0BD4690BD341E0020A1520001301E0020B7
S31501002EF05D53000141530001712600012C1E002083
S31501002F00281E00203A1E0020C9260001381E002076
S31501002F10A81D0020C92C00018158000180B586B08A
S31501002F2000AF0346FB710023FB71104B9847786194
S31501002F30FB790F4A32F813307B82FB79FA790D4916
S31501002F408A5CD2B211460C4A5B000B4432F813304C
S31501002F509BB21A467B8AD31AFB607869074B98475E
S31501002F60FB6818461837BD4680BD00BF71260001B3
S31501002F70A01D00209C1D0020981D0020C9260001CF
S31501002F8080B500AF0020024B98470346184680BD26
S31501002F901D2F000180B582B000AF0346FB71FB799E
S31501002FA01846064B98470346002B14BF01230023FE
S31501002FB0DBB218460837BD4680BD00BF1D2F000194
S31501002FC080B588B000AF0346B9607A60FB73BB6811
S31501002FD0FB610023FB73364B98477861FB7B354ACF
S31501002FE032F813307B82FB7B334AD35C7B74FA7BEA
S31501002FF07B7C32495200134431F813309BB27A8AF2
S315010030009A422CBF012300233B7478692C4B9847C5
S315010030103B7C002B09D02B4B1B78DBB283F00103E1
S31501003020DBB2002BD7D07B683DE0FA7B7B7C234962
S315010030305200134431F813309BB21A467B8AD31AD5
S31501003040BB61BA697B689A4201D97B68BB61F97B2E
S315010030507A7C7B8A49000A44920113441A4A134432
S31501003060BA691946F869194B9847FB7BFA7B1149EE
S3150100307031F8122091B2BA6992B20A4491B20D4A5C
S3150100308022F81310FA69BB691344FB617A68BB69BC
S31501003090D31A7B60FB7B18460D4B98477B68002B48
S315010030A000D098E7002318462037BD4680BD00BFF3
S315010030B071260001A01D00209C1D0020981D0020E6
S315010030C0C9260001141D0020181D002051C500014C
S315010030D0252B000180B582B000AF786039603A686F
S315010030E079680020034B9847034618460837BD46C2
S315010030F080BD00BFC12F000180B400AF024B18464E
S31501003100BD4680BC704700BFCC19010180B400AF39
S31501003110064B1B681B68054A12681268528892B2F0
S3150100312013441846BD4680BC704700BF481E0020A8
S3150100313080B584B000AF78600B46FB70124B9847A0
S31501003140F8607B681B781A467B6813447B6010E045
S315010031507B685B78042B11D07B685B78FA789A429E
S3150100316001D17B680CE07B681B781A467B681344A7
S315010031707B60FA687B689A42EAD800E000BF0023C8
S3150100318018461037BD4680BD0D31000180B584B0AB
S3150100319000AF03460A46FB711346BB711E4B1B78F3
S315010031A0002B01D1002332E01C4B1B681B681B79E5
S315010031B0FA799A4201D3002329E0184B1B681B6850
S315010031C0174A1360174B9847F8601AE0144B1B68AF
S315010031D05B78042B0DD1124B1B689B78FA799A42C6
S315010031E007D10F4B1B68DB78BA799A4201D10123CB
S315010031F00DE00B4B1B680A4A126812781344084A01
S315010032001360074B1B68FA689A42DFD800231846F9
S315010032101037BD4680BD00BF441E0020481E002059
S315010032204C1E00200D31000180B584B000AF03466D
S31501003230FB71FB79002118461E4B9847034683F024
S315010032400103DBB2002B01D000232FE01A4B1B68D0
S315010032505A68FB799B0013441B68BB60BB68DB683B
S31501003260984703461A46FB7911461846114B98476B
S31501003270034683F00103DBB2002B01D0002315E0E6
S315010032800E4B1B68FB600521F8680D4B9847F860EB
S31501003290FB68002B05D0FB689B781846094B9847BD
S315010032A0F1E700BFBB685B689847012318461037F2
S315010032B0BD4680BD8D310001481E00204C1E0020F8
S315010032C0313100018155000180B584B000AF03465C
S315010032D00A46FB711346BB71BA79FB79114618464A
S315010032E01A4B9847034683F00103DBB2002B01D04A
S315010032F0002327E0164B1B68FB600521F868154B78
S315010033009847F860FB68002B11D0FB689878FB683A
S31501003310D978FB689B889BB21A460F4B98470346A0
S3150100332083F00103DBB2002BE7D000230AE000BFE4
S315010033300A4B1B685A68FB799B0013441B681B6880
S315010033409847034618461037BD4680BD8D310001AA
S315010033504C1E00203131000195530001481E00200A
S3150100336080B582B000AF0F4B1B78002B10D0002325
S31501003370FB7106E0FB7918460B4B9847FB79013345
S31501003380FB710A4B1B681B681B79FA799A42F1D3C8
S31501003390044B00221A70064B01221A8000BF08371F
S315010033A0BD4680BD441E002029320001481E002072
S315010033B03C1E002080B582B000AF144B1B78002B59
S315010033C01FD00023FB7115E0114B1B685A68FB796E
S315010033D09B0013441B681B69002B08D00C4B1B6810
S315010033E05A68FB799B0013441B681B699847FB7954
S315010033F00133FB71064B1B681B681B79FA799A42EC
S31501003400E2D300BF0837BD4680BD00BF441E002081
S31501003410481E002080B500AF064BDB88022B01D089
S31501003420002304E002210448044B9847012318466F
S3150100343080BD00BF048300203C1E00206D530001A7
S3150100344080B500AF0B4BDB88022B01D000230EE0C9
S31501003450084B9B88DBB21846074B984703469AB23E
S31501003460064B1A8002210548054B98470123184649
S3150100347080BD00BF04830020F1550001501E0020CD
S315010034806D53000180B400AF0B4BDB88002B01D0DC
S3150100349000230DE0084B5B88012B08D1074B1B88E5
S315010034A023F002039AB2054B1A80012300E00023A0
S315010034B01846BD4680BC7047048300203C1E002090
S315010034C080B500AF0A4BDB88002B01D000230CE04E
S315010034D0074B5B88002B07D1054B9B88DBB218464F
S315010034E0044B9847034600E00023184680BD00BF01
S315010034F0048300205557000180B400AF084BDB88D8
S31501003500002B01D0002307E0054B5B88012B02D07D
S3150100351000BF002300E000231846BD4680BC70476B
S315010035200483002080B500AF0D4BDB88002B01D052
S31501003530002312E00A4B5B88002B0DD1084B9B88B8
S31501003540DBB21846074B9847054B9B88DBB21846FA
S31501003550054B9847034600E00023184680BD00BF8F
S3150100356004830020D95900016156000180B500AFDE
S31501003570054B5B88DBB203F07F03DBB21846034BD6
S31501003580984700BF80BD00BF04830020B1520001EF
S3150100359080B400AF064BDB88002B01D0002303E08B
S315010035A0034B044A1A6101231846BD4680BC704785
S315010035B0048300206D35000180B584B000AF00237F
S315010035C0FB71294B5B88DBB2032B20D801A252F891
S315010035D023F000BFE5350001EF350001F9350001A3
S315010035E00336000104212148214B984711E00923A4
S315010035F0FB71204BBB600CE00F23FB711E4BBB60C4
S3150100360007E00723FB711D4B9847B86001E00023D3
S3150100361026E0FB79002B22D00023FB730DE0FB7B18
S31501003620FA7BB9680A44127891B2154A5B001344D1
S315010036300A465A80FB7B0133FB73FA7BFB799A427C
S31501003640EDD3FB790133DBB25B00DAB20C4B1A70B6
S315010036500B4B1B789BB219460948054B984701232A
S3150100366018461037BD4680BD048300209401002012
S315010036706D53000198010020A4010020F9300001DA
S31501003680B401002080B582B000AF414B5B88FB716D
S315010036903F4B5B881B0A9BB2DBB2013B0E2B65D805
S315010036A001A252F823F000BFE5360001FB36000106
S315010036B0593700016D3700016D3700016D37000183
S315010036C06D3700016D3700016D3700016D3700015F
S315010036D06D3700016D3700016D3700016D3700014F
S315010036E0373700012B4B1A682A4B1B681B789BB294
S315010036F019461046284B98473BE0264B1B685B7CD6
S31501003700FA799A4201D300233EE0224B5A68FB79AB
S31501003710DB00134418681F4B5A68FB79DB0013441E
S315010037201B685B889BB219461B4B9847184B9B68D5
S3150100373002225A701DE0174B9B68002B01D1002312
S3150100374022E0144B9A68134B9B685B889BB219461F
S315010037501046114B98470CE0104B9847034683F0EF
S315010037600103DBB2002B03D000230DE000230BE0A5
S3150100377000BF074BDA88064B9B899A4203D2044B5A
S31501003780DA88034B9A81012318460837BD4680BD66
S3150100379004830020880100206D530001B935000122
S315010037A080B500AF064BDB88012B01D0002304E076
S315010037B001210448044B98470123184680BD00BFE8
S315010037C004830020441E00206D53000180B582B0A1
S315010037D000AF274BDB88002B01D0002343E0254BAC
S315010037E098470346002B01D100233CE0204B5B8820
S315010037F0DBB2214A1268527C934201DD002332E09A
S315010038001E4B98471A4B5B88DAB21D4B1A701C4B3C
S315010038101B78002B01D1012325E0174B5A68184B61
S315010038201B7803F10053013BDB001344154A136077
S315010038300023FB710FE0FB7900211846124B9847D4
S31501003840034683F00103DBB2002B01D000230AE01B
S31501003850FB790133FB710B4B1B681B681B79FA79EA
S315010038609A42E8D3012318460837BD4680BD00BFFA
S3150100387004830020155300018801002061330001F3
S31501003880441E0020481E0020C932000180B582B0C6
S3150100389000AF1E4BDB88012B01D0002332E01C4B0D
S315010038A01B78002B01D100232CE0184B9B88FB7160
S315010038B0184B1B681B681B79FA799A4201D30023BE
S315010038C020E0FB7900211846134B9847034683F005
S315010038D00103DBB2002B01D0002313E00D4B1B6863
S315010038E05A68FB799B0013441B683B603B68DB68A5
S315010038F0984703461A46094B1A7001210748084B97
S315010039009847012318460837BD4680BD0483002029
S31501003910441E0020481E00208D310001401E00205B
S315010039206D53000180B582B000AF144BDB88002BCC
S3150100393001D000231EE0124B1B78002B01D100237E
S3150100394018E00E4B9B88FB710C4B5B88BB71FB79B6
S3150100395018460C4B9847034683F00103DBB2002B54
S3150100396001D0002306E0BA79FB7911461846064BC9
S315010039709847034618460837BD4680BD0483002094
S31501003980441E002029320001C932000180B500AF72
S315010039904D4B1B785BB2002B3EDA4B4BDB88002B81
S315010039A001D100238EE0484B1B7803F01F03002B47
S315010039B014D1454B5B78062B08D0082B0AD0002B77
S315010039C000D00BE0414B984703467BE0404B9847BC
S315010039D0034677E03F4B9847034673E03A4B1B7823
S315010039E003F01F03012B08D1374B5B780A2B00D05C
S315010039F003E0394B9847034664E0334B1B7803F0E9
S31501003A001F03022B5DD1304B5B78002B00D058E0B1
S31501003A10324B9847034655E02B4B1B7803F01F03A7
S31501003A20002B2AD1284B5B78013B082B24D801A215
S31501003A3052F823F0613A0001793A0001693A00012E
S31501003A40793A0001593A0001793A0001793A0001BF
S31501003A50793A0001713A0001214B9847034631E05A
S31501003A60204B984703462DE01F4B9847034629E014
S31501003A701E4B9847034625E000BF134B1B7803F006
S31501003A801F03012B08D1104B5B780B2B00D003E0F1
S31501003A90174B9847034615E00B4B1B7803F01F03A2
S31501003AA0022B0ED1084B5B78012B02D0032B04D0DD
S31501003AB007E0104B9847034604E00F4B984703462F
S31501003AC000E00023184680BD048300201534000160
S31501003AD085360001A13700018D380001413400010E
S31501003AE09135000185340001F9340001CD3700011B
S31501003AF025390001C13400012535000180B582B0A8
S31501003B0000AF204B1B78002B01D1002336E01E4B62
S31501003B109B88FB711D4B1B681B681B79FA799A42BE
S31501003B2001D300232AE0FB7900211846184B984758
S31501003B30034683F00103DBB2002B01D000231DE015
S31501003B40124B1B685A68FB799B0013441B683B6048
S31501003B503B68DB68984703461A46FB7911461846C7
S31501003B600B4B9847034683F00103DBB2002B01D0D0
S31501003B70002303E03B689B689847034618460837CD
S31501003B80BD4680BD441E002004830020481E00203F
S31501003B908D31000180B582B000AF1E4B1B78002B22
S31501003BA001D1002332E01C4B9B88FB710023FB7182
S31501003BB024E01A4B1B685A68FB799B0013441B6867
S31501003BC03B603B68DB68984703461A46FB7911461A
S31501003BD01846134B9847034683F00103DBB2002BCB
S31501003BE001D0002312E03B689B6898470346002BEF
S31501003BF001D001230AE0FB790133FB71074B1B68F6
S31501003C001B681B79FA799A42D3D3002318460837E1
S31501003C10BD4680BD441E002004830020481E0020AE
S31501003C208D31000180B500AF1E4B00229A811D4BDC
S31501003C3000221A611B4B00225A611A4B1B785BB298
S31501003C40002B05DA174BDB88002B01D1002327E077
S31501003C50144B1B7803F06003002B06D1124B9847D7
S31501003C600346002B01D001231AE00E4B1B7803F00B
S31501003C701F03012B06D10D4B98470346002B01D09C
S31501003C8001230DE0074B1B7803F01F03022B06D11E
S31501003C90074B98470346002B01D0012300E0002380
S31501003CA0184680BD048300208D390001FD3A0001CC
S31501003CB0953B000180B586B000AFF860B9607A60C7
S31501003CC000237B61FB68002B12D04FF0FF3313E01A
S31501003CD00B4B1B680B4A1268B96810469847BB68BC
S31501003CE00133BB607B6901337B617B68013B7B6090
S31501003CF07B68002BECDC7B6918461837BD4680BD16
S31501003D00F88200200083002080B586B000AFF860FD
S31501003D10B9607A6000237B61FB68012B2FD0FB68B9
S31501003D20022B2CD0FB68032B29D04FF0FF332AE05E
S31501003D30BB681B780A2B0CD1154B1B68154A1268F8
S31501003D400D21104698470346002B02DA4FF0FF3348
S31501003D5019E00F4B1A680F4B1868BB68591CB960FC
S31501003D601B78194690470346002B02DA4FF0FF33C2
S31501003D7009E07B6901337B617B68013B7B607B6882
S31501003D80002BD5D17B6918461837BD4680BD00BFCB
S31501003D90FC8200200083002080B582B000AF7860ED
S31501003DA07868034B984700BF0837BD4680BD00BF02
S31501003DB0154A000180B500AF0B20034B98470C2034
S31501003DC0014B984700BF80BD993D000180B489B081
S31501003DD000AF78607B68FB61FB69BB61BB695A090F
S31501003DE0FB697B617B6903F01F03012101FA03F380
S31501003DF03A61FB603B69BB60BB6803F5001303F2E4
S31501003E0007735B021A46FB68536000BF2437BD4641
S31501003E1080BC704780B487B000AF786039607B683A
S31501003E207B613B683B617B69FB60FB6803F50013C3
S31501003E3003F207735B021A463B69536000BF1C37E6
S31501003E40BD4680BC704780B48BB000AFF860B960E6
S31501003E507A60FB687B62BB683B627B68FB617B6A5D
S31501003E60BB61BB6903F5001303F207735B027B6158
S31501003E70FB6903F00803002B03D07B693A6A5A6693
S31501003E8002E07B693A6A1A66FB6903F01003002BAC
S31501003E9004D07B693A6AC3F8942003E07B693A6AE5
S31501003EA0C3F89020FB6903F02003002B03D07B6944
S31501003EB03A6A1A6502E07B693A6A5A65FB6903F058
S31501003EC0C003002B03D07B693A6A1A6202E07B6960
S31501003ED03A6A5A62FB6903F08003002B04D07B69BE
S31501003EE03A6AC3F8842003E07B693A6AC3F8802002
S31501003EF0FB6903F00103002B06D07B691A6F3B6A4D
S31501003F001A437B691A6706E07B691A6F3B6ADB43D2
S31501003F101A407B691A67FB6903F00203002B06D07E
S31501003F207B695A6F3B6A1A437B695A6706E07B696C
S31501003F305A6F3B6ADB431A407B695A6700BF2C37CD
S31501003F40BD4680BC704780B48DB000AF78603960E3
S31501003F507B68FB623B68BB62FB6A7B627B6A5A09D0
S31501003F60FB6A3B623B6A03F01F03012101FA03F37B
S31501003F70FA61BB61BB6A7B61FB693B613B6903F526
S31501003F80001303F207735B02FB607B6903F008030E
S31501003F90002B03D0FB68BA695A6602E0FB68BA696E
S31501003FA01A667B6903F01003002B04D0FB68BA691B
S31501003FB0C3F8942003E0FB68BA69C3F890207B69D3
S31501003FC003F02003002B03D0FB68BA691A6502E0EF
S31501003FD0FB68BA695A657B6903F0C003002B03D0FD
S31501003FE0FB68BA691A6202E0FB68BA695A627B69C0
S31501003FF003F08003002B04D0FB68BA69C3F8842060
S3150100400003E0FB68BA69C3F880207B6903F001030A
S31501004010002B06D0FB681A6FBB691A43FB681A6747
S3150100402006E0FB681A6FBB69DB431A40FB681A6737
S315010040307B6903F00203002B06D0FB685A6FBB694C
S315010040401A43FB685A6706E0FB685A6FBB69DB4394
S315010040501A40FB685A6700BF3437BD4680BC7047BB
S3150100406080B48DB000AF78600B46FB707B68FB6255
S31501004070FB7887F82B30FB6A7B627B6A3B623B6A83
S315010040805B09FB61FB6903F5001303F207735B022E
S31501004090BB6197F82B30012B09D1FB6A7B617B69E8
S315010040A003F01F0301229A40BB691A610CE097F8DD
S315010040B02B30002B08D1FB6A3B613B6903F01F03E0
S315010040C001229A40BB695A61FB6AFB60FB6803F0F7
S315010040D01F0301229A40BB69C3F8A02000BF3437F1
S315010040E0BD4680BC704780B48BB000AF78600B468C
S315010040F0FB707B687B62FB7887F823307B6AFB6108
S31501004100FB69BB61BB695B097B617B6903F50013D5
S3150100411003F207735B023B6197F82330002B09D04A
S315010041207B6AFB60FB6803F01F0301229A403B692F
S315010041301A6308E07B6ABB60BB6803F01F030122B8
S315010041409A403B695A6300BF2C37BD4680BC704715
S3150100415080B500AF244B984701210C20234B98478B
S3150100416001210C20224B984701210F201F4B984714
S3150100417001210F201E4B9847002104201D4B984713
S3150100418004201D4B9847002103201A4B9847032012
S31501004190194B984700212D20164B98472D20164B79
S315010041A0984700212E20134B98472E20124B9847F3
S315010041B01248134B984702211048124B9847002288
S315010041C04FF440610120104B98474FF440610120A4
S315010041D00E4B98470E480A4B984701210C48094B4C
S315010041E0984700BF80BD00BFB53D00016140000199
S315010041F0E7400001473F0001CD3D0001008001403D
S315010042003143000199440001473E0001153E00017A
S3150100421000C0014080B584B000AFF860B9607A6033
S315010042207B681B0203F47062BB68134343F080632F
S315010042301946F868034B9847002318461037BD46C0
S3150100424080BD00BFAD00002080B483B000AFEFF3A6
S3150100425010837B607B68002B0CBF01230023DBB23C
S315010042603B6072B6BFF35F8F044B00221A703B6846
S3150100427018460C37BD4680BC704700BFD4010020EC
S3150100428080B483B000AF78607B68002B14BF012334
S315010042900023DBB218460C37BD4680BC70470000D0
S315010042A080B582B000AF78607868074B98470346BF
S315010042B0002B05D0054B01221A70BFF35F8F62B642
S315010042C000BF0837BD4680BD81420001D4010020F0
S315010042D080B582B000AF78607868034B984700BF1D
S315010042E00837BD4680BD00BF154A000180B584B0C0
S315010042F000AF0346FB71FB790A4AD35CFF2B00D161
S31501004300FEE7094B9847F860FB79064AD25C013211
S31501004310D1B2044AD154F868044B984700BF10370C
S31501004320BD4680BDF082002049420001A142000144
S3150100433080B582B000AF786000204A4B98477B6811
S31501004340494A93420DD10720484B98470720484BCD
S31501004350984700210720474B98470720464B984727
S315010043607CE07B68454A93420DD116203F4B984726
S3150100437007203F4B9847002107203E4B98470720CF
S315010043803D4B98476AE07B683D4A93420DD1152023
S31501004390364B98470720364B984700210720354B67
S315010043A098470720344B984758E07B68354A934233
S315010043B00DD114202D4B984707202D4B98470021EE
S315010043C007202C4B984707202B4B984746E07B68E4
S315010043D02D4A93420DD11320244B98470620244B96
S315010043E0984700210620234B98470620224B9847E1
S315010043F034E07B68254A93420DD10E201B4B98472A
S3150100440006201B4B9847002106201A4B9847062089
S31501004410194B984722E07B681D4A93420DD109202A
S31501004420124B98470620124B984700210620114B44
S3150100443098470620104B984710E07B68154A93422F
S315010044400CD10820094B98470620094B98470021B3
S315010044500620084B98470620074B984700BF0837A8
S31501004460BD4680BDED42000100400340D14200013E
S31501004470914B0001154B00016D4B000100000440FA
S315010044800080004000C00140008001400040024021
S315010044900000024000C0004080B483B000AF7860E5
S315010044A00B46FB70FA787B681A6000BF0C37BD4675
S315010044B080BC704780B485B000AFF860B9607A609F
S315010044C0BB68002B07D0BB681A68FB689A60BB689B
S315010044D05A68FB68DA607B68002B07D07B681A682C
S315010044E0FB689A617B685A68FB68DA6100BF14371A
S315010044F0BD4680BC704780B485B000AFF860B96036
S315010045007A60BB68002B07D0BB681A68FB681A6023
S31501004510BB685A68FB685A607B68002B07D07B68CA
S315010045201A68FB681A617B685A68FB685A6100BFA2
S315010045301437BD4680BC704780B483B000AF786045
S3150100454039603A6840F2011313407A68136200BF7A
S315010045500C37BD4680BC704780B483B000AF78602D
S3150100456039603A6840F2022313407A68136200BF49
S315010045700C37BD4680BC704780B485B000AFF8608B
S31501004580B9607A607B6803F01003002B20D0FB68CA
S31501004590BA68C3F8B0207B6803F02003002B04D06F
S315010045A0FB68BA68C3F8D42003E0FB68BA68C3F8AD
S315010045B0D0207B6803F04003002B04D0FB68BA6867
S315010045C0C3F8C02008E0FB68BA68C3F8C42003E05A
S315010045D0FB68BA68C3F8B42000BF1437BD4680BC77
S315010045E0704780B483B000AF786039607B683A6801
S315010045F01A6400BF0C37BD4680BC704780B483B0D7
S3150100460000AF786039607B683A685A6400BF0C373E
S31501004610BD4680BC704780B483B000AF78607B68CC
S31501004620DB6C18460C37BD4680BC704780B483B03E
S3150100463000AF78607B689B6C18460C37BD4680BC22
S315010046407047000080B584B000AF78603960786843
S31501004650264B9847F8607868254B98470246FB68D1
S315010046601340FB60FB68002B3CD00023BB6034E0A9
S31501004670204ABB681B0113441A683B689A4226D13B
S315010046801C4ABB681B01134404331A68FB681340B8
S31501004690002B1CD0174ABB681B0113440C331B6843
S315010046A01449BA6812010A4410681249BA6812011B
S315010046B00A4404321268114698470E4ABB681B0128
S315010046C0134404331B68DB43FA681340FB60BB6881
S315010046D00133BB60BB68062B03D8FB68002BC7D12F
S315010046E000E000BF00BF1037BD4680BD1746000180
S315010046F02D460001541E002080B586B000AFF8603B
S31501004700B9607A603B60214B1B68062B01D90123F6
S3150100471038E00023FB7511E0FB7D1B011C4A1344A5
S315010047203B613B691A68BB689A4204D13B695A6886
S315010047307B689A4208D0FB7D0133FB75FA7D134BEA
S315010047401B689A42E8D900E000BF3B69BA681A6063
S315010047503B697A685A603B693A689A603B693A6A8A
S31501004760DA60FA7D094B1B6801339A4204D1074B83
S315010047701B680133054A13603A687968F868054B86
S315010047809847002318461837BD4680BDC41E002031
S31501004790541E00207945000180B500AF0B21024867
S315010047A0024B984700BF80BD000E0E4045460001F2
S315010047B080B500AF0C210248024B984700BF80BD6F
S315010047C000100E404546000180B485B000AF786008
S315010047D01C491C4B1B6B23F070027B6813430B6354
S315010047E04FF40063FB6007E0FB68002B01D1012356
S315010047F023E0FB68013BFB60124B9B6E03F0080351
S31501004800002BF1D00F4A0F4B1B6B23F0030343F030
S31501004810020313634FF40063FB6007E0FB68002BA0
S3150100482001D1012309E0FB68013BFB60054B9B6E4F
S3150100483003F00803002BF1D0002318461437BD46B8
S3150100484080BC704700040E4080B483B000AF78602E
S315010048507B68012B07D1084A074B9B6843F0254328
S3150100486043F480139360044B044A1A6000BF0C376B
S31501004870BD4680BC704700BF10140E40080000A55D
S3150100488080B400AF094B5B6903F08003002B07D0AE
S31501004890074B9B6E03F08003002B01D0012300E040
S315010048A000231846BD4680BC704700BF10140E4059
S315010048B000040E4080B483B000AF7860184A184BEC
S315010048C01B6A43F45C1343F00803136200BF144BE5
S315010048D09B6E03F40033002BF9D01149104B1B6A70
S315010048E023F45C1323F070037A68134343F45C13D7
S315010048F00B6200BF0A4B9B6E03F40033002BF9D009
S31501004900074A074B1B6A23F09B7323F4803343F456
S315010049105C13136200BF0C37BD4680BC704700BFF5
S3150100492000040E4080B483B000AF786039607B68C4
S31501004930002B08D01649164B1B6A164A1A40164B0D
S3150100494013430B621EE01249114B1B6A23F45C13DD
S3150100495023F003033A68120292B2134343F45C1341
S3150100496043F001030B6200BF094B9B6E03F0010389
S31501004970002BF9D0064A064B1B6A43F09B7343F49E
S315010049808033136200BF0C37BD4680BC704700BF41
S3150100499000040E40FCFFC8FE0200370180B400AFE0
S315010049A0034B9B6E03F480331846BD4680BC7047AB
S315010049B000040E4080B400AF034B00229A6200BF90
S315010049C0BD4680BC704700BF00040E4080B400AFF6
S315010049D0034B9B6E03F002031846BD4680BC70472D
S315010049E000040E4080B400AF034B0022DA6200BF20
S315010049F0BD4680BC704700BF00040E4080B400AFC6
S31501004A00034B9B6E03F004031846BD4680BC7047FA
S31501004A1000040E4080B483B000AF78607B68322B0F
S31501004A2001D901232FE07B681F2B13D8184B9A69F4
S31501004A3001217B6801FA03F31A4001217B6801FA1F
S31501004A4003F39A421ED0124A01217B6801FA03F34D
S31501004A50136117E07B68203B7B600D4BD3F808217F
S31501004A6001217B6801FA03F31A4001217B6801FAEF
S31501004A7003F39A4206D0064A01217B6801FA03F341
S31501004A80C2F80031002318460C37BD4680BC70477A
S31501004A9000040E4080B483B000AF78607B68322B8F
S31501004AA001D901232FE07B681F2B13D8184B9A6974
S31501004AB001217B6801FA03F31A4001217B6801FA9F
S31501004AC003F39A421ED1124A01217B6801FA03F3CC
S31501004AD0536117E07B68203B7B600D4BD3F80821BF
S31501004AE001217B6801FA03F31A4001217B6801FA6F
S31501004AF003F39A4206D1064A01217B6801FA03F3C0
S31501004B00C2F80431002318460C37BD4680BC7047F5
S31501004B1000040E4080B485B000AF78603960124958
S31501004B203B6843F004027B68103341F823204FF4BD
S31501004B300063FB6007E0FB68002B01D101230DE058
S31501004B40FB68013BFB60084B9A6E4FF480717B68F2
S31501004B5001FA03F31340002BEDD000231846143756
S31501004B60BD4680BC704700BF00040E4080B483B0D0
S31501004B7000AF7860054A4FF480717B6801FA03F350
S31501004B80136000BF0C37BD4680BC704700040E4061
S31501004B9080B483B000AF7860054A4FF480717B68BA
S31501004BA001FA03F3536000BF0C37BD4680BC704762
S31501004BB000040E4080B400AF084B1B78DBB2002B1B
S31501004BC014BF01230023DBB283F00103DBB203F040
S31501004BD00103DBB21846BD4680BC7047C81E0020E3
S31501004BE080B582B000AF78607868034B984700BF04
S31501004BF00837BD4680BD00BF154A000180B582B0A9
S31501004C0000AF78607B68214A934203D10820204B8C
S31501004C10984736E07B681F4A934203D109201C4B13
S31501004C2098472EE07B681C4A934203D10E20184B0D
S31501004C30984726E07B68194A934203D11320144B07
S31501004C4098471EE07B68164A934203D11420104B05
S31501004C50984716E07B68134A934203D115200C4B03
S31501004C6098470EE07B68104A934203D11620084B01
S31501004C70984706E07B680D4A934202D10720044B10
S31501004C80984700BF0837BD4680BD00BF00C400403D
S31501004C90E14B00010004024000440240008401404F
S31501004CA000C4014000840040000404400044034065
S31501004CB080B483B000AF786039607B685B6823F4A9
S31501004CC040327B685A607B685A683B681B0403F470
S31501004CD040331A437B685A6000BF0C37BD4680BC1F
S31501004CE0704780B485B000AFF860B9607A607B68C0
S31501004CF0002B0CD0FB68BA680C3253F8223043F013
S31501004D000101FB68BA680C3243F822100BE0FB681C
S31501004D10BA680C3253F8223023F00101FB68BA68F5
S31501004D200C3243F8221000BF1437BD4680BC7047D1
S31501004D3080B485B000AFF860B9607A607B68002BFB
S31501004D400CD0FB68BA680C3253F8223043F00201EA
S31501004D50FB68BA680C3243F822100BE0FB68BA68AC
S31501004D600C3253F8223023F00201FB68BA680C3288
S31501004D7043F8221000BF1437BD4680BC704780B48B
S31501004D8085B000AFF860B9607A607B68042B18D1F2
S31501004D90FB68BA680C3253F8223023F00801FB682D
S31501004DA0BA680C3243F82210FB68BA680C3253F821
S31501004DB0223043F00401FB68BA680C3243F8221032
S31501004DC02AE07B68002B18D1FB68BA680C3253F8CD
S31501004DD0223023F00801FB68BA680C3243F822102E
S31501004DE0FB68BA680C3253F8223023F00401FB68E1
S31501004DF0BA680C3243F822100EE07B68082B0BD1FF
S31501004E00FB68BA680C3253F8223043F00801FB689C
S31501004E10BA680C3243F8221000BF1437BD4680BC75
S31501004E20704780B485B000AFF860B9607A60FB68FE
S31501004E30BA680C3253F8223023F0F001FB68BA68E5
S31501004E400C3243F82210FB68BA680C3253F8222060
S31501004E507B6842EA0301FB68BA680C3243F8221008
S31501004E6000BF1437BD4680BC704780B485B000AF23
S31501004E70F860B9601346FB71FB79002B02D14FF044
S31501004E80FF331BE0FB68BA680C3253F8223023F477
S31501004E907F41FB68BA680C3243F82210FB68BA6896
S31501004EA00C3253F82220FB791B029BB242EA030122
S31501004EB0FB68BA680C3243F82210002318461437EF
S31501004EC0BD4680BC704780B485B000AFF860B9605C
S31501004ED011461A460B46FB711346BB71FB68BA684D
S31501004EE00C3253F8223099B2FB68BA680C3243F897
S31501004EF02210FB68BA680C3253F82220FB791B0496
S31501004F0003F47F03B97909060B4342EA0301FB68FF
S31501004F10BA680C3243F8221000BF1437BD4680BC74
S31501004F20704780B485B000AF786039607B68DB6913
S31501004F3023F4F053FB603B685B0203F4F052FB6819
S31501004F40134343F0B44343F480737A68D36100BFDB
S31501004F501437BD4680BC704780B483B000AFEFF311
S31501004F6010837B607B68002B0CBF01230023DBB21F
S31501004F703B6072B6BFF35F8F044B00221A703B6829
S31501004F8018460C37BD4680BC704700BFD4010020CF
S31501004F9080B483B000AF78607B68002B14BF012317
S31501004FA00023DBB218460C37BD4680BC70470000B3
S31501004FB080B582B000AF78607868074B98470346A2
S31501004FC0002B05D0054B01221A70BFF35F8F62B625
S31501004FD000BF0837BD4680BD914F0001D4010020B6
S31501004FE080B584B000AF0346FB71FB790A4AD35CF6
S31501004FF0FF2B00D1FEE7094B9847F860FB79064A7B
S31501005000D25C0132D1B2044AD154F868044B9847B4
S3150100501000BF1037BD4680BDF0820020594F000108
S31501005020B14F000180B584B000AF0346FB71FB7937
S315010050300A4AD35C002B00D1FEE7094B9847F8607A
S31501005040FB79064AD25C013AD1B2044AD154F868D6
S31501005050044B984700BF1037BD4680BDF082002043
S31501005060594F0001B14F000180B582B000AF034630
S31501005070FB71FB7983F00103DBB2002B06D00D4BEC
S315010050801B78002B02D000200B4B9847FB79002B95
S3150100509009D0084B1B7883F00103DBB2002B02D049
S315010050A00020064B9847034AFB79137000BF083767
S315010050B0BD4680BDC91E002025500001E14F0001FB
S315010050C080B500AF664B9847034683F00103DBB218
S315010050D0002B0CD0634BDB6903F48073002B06D1E4
S315010050E072B6BFF35F8F604B00221A70B7E03020B3
S315010050F05E4B98475B4B9B6903F40063002B0ED014
S31501005100584BDB6903F40063002B08D0554B4FF471
S3150100511000621A62564B9847564B98479DE0564B8C
S3150100512098470346002B40F09580544B9847034619
S31501005130002B40F091804B4B9B6903F40053002BED
S3150100514005D0484BDB6903F40053002B17D1454BBF
S315010051509B6903F40073002B05D0424BDB6903F412
S315010051600073002B0BD13F4B9B6903F48063002B2B
S315010051701FD03C4BDB6903F48063002B19D0394BFC
S315010051804FF418521A62374B4FF418525A610120E4
S315010051903B4B98473B4B9847324B4FF480721A6210
S315010051A0304B4FF480721A612E4B4FF400621A6134
S315010051B053E02C4B9B6903F48073002B22D0294BBF
S315010051C0DB6903F48073002B1CD0264B4FF48072ED
S315010051D01A62244B4FF480725A61224B4FF40052EB
S315010051E01A61204B4FF400721A611E4B4FF4806214
S315010051F01A613020244B98470020214B9847234BB6
S3150100520098472AE0174BDB6903F48053002B25D01E
S31501005210144B4FF480521A621D4B98471D4B984709
S31501005220104A104B5B6823F0010353600D4A0D4B86
S315010052305B6823F002035360174B9847174B984757
S31501005240084B4FF480721A61064B4FF400621A61E3
S3150100525000BF02E000BF00E000BF00BF00BF80BD8D
S31501005260B54B000100400440D4010020154A00015D
S31501005270B533000197A1000199630001F1690001AD
S31501005280695000018BA10001954A00017FA100012F
S315010052904164000161330001F55B00019D5C000181
S315010052A080B400AF00231846BD4680BC704700009D
S315010052B080B483B000AF0346FB71154A144B5B689B
S315010052C023F001035360124A114B9B6823F4807348
S315010052D09360FB79002B15D00D490D4B9B6823F08C
S315010052E07F02FB7903F07F0313438B60084A084B67
S315010052F09B6843F480739360054A054B5B6843F0F2
S315010053000103536000BF0C37BD4680BC704700BF28
S315010053100040044080B400AF084B5B6803F0010312
S31501005320002B06D0054B9B68DBB203F07F03DBB293
S3150100533000E000231846BD4680BC7047004004408B
S3150100534080B400AF044B1B689BB2C3F30A039BB244
S315010053501846BD4680BC70470040044080B400AF8B
S3150100536000231846BD4680BC7047000080B483B058
S3150100537000AF78600B467B80054A7B689360044AE0
S315010053807B88938100BF0C37BD4680BC704700BF48
S315010053900483002080B487B000AF0346FB710B463F
S315010053A0BB711346BB80FB7903F08003002B14BF4E
S315010053B001230023FB75BB7903F00303012B0CBF0B
S315010053C001230023BB75FB7903F00F03FB71FB7906
S315010053D0032B01D90023CAE0674AFB790C3352F843
S315010053E0233003F40043002B01D00023BFE0BB7D33
S315010053F0002B07D0FB79002B02D0FB79032B01D1BF
S315010054000023B4E0BA88FB79042B02D0FB79052B83
S3150100541002D14FF4007300E040239A4201DD0023DC
S31501005420A5E0FB795A1E13469B0013449B00534A81
S3150100543013443B61BB88C3F3090399B23A69138AE2
S3150100544061F3090313823A69537C6FF3C7135374EB
S315010054503A69537C6FF345135374FB7D002B04D0DB
S315010054603A69537C6FF3830353744349424B9A6AF7
S31501005470FB79012000FA03F313438B6200BF3E4B15
S315010054809A6AFB79012101FA03F31340002BF6D046
S315010054903949394B9A6AFB79012000FA03F3DB4358
S315010054A013408B62344AFB790C3352F82330FB608C
S315010054B0FB6843F04F03FB60FB6823F4074323F0CB
S315010054C08003FB60FB7D002B0DD0BB791B0203F42F
S315010054D0407343F4806303F4E06343F4004248F20B
S315010054E08073134008E0BB791B0203F4407343F455
S315010054F0004248F280731340FA681343FB601E4969
